:020000040800F2
:10000000F0B4022061020008B37E0008D93E000867
:10001000AF7E00084708000865A200080000000045
:100020000000000000000000000000002988000817
:10003000950C000800000000F1830008118B0008F7
:100040007B0200087B0200087B0200087B0200089C
:100050007B0200087B0200087B0200087B0200088C
:100060007B0200087B0200087B0200087B0200087C
:100070007B0200087B0200087B0200087B0200086C
:100080007B0200087B0200087B0200087B0200085C
:100090007B0200087B0200087B0200087B0200084C
:1000A0007B0200087B0200087B0200087B0200083C
:1000B0007B0200087B0200087B0200087B0200082C
:1000C0007B0200087B0200087B0200087B0200081C
:1000D0007B0200087DA100081DA200087B02000829
:1000E0007B0200087B0200087B0200087B020008FC
:1000F0007B0200087B0200087B0200087B020008EC
:100100007B0200087B0200087B0200087B020008DB
:100110007B0200087B0200087B0200087B020008CB
:100120007B0200087B0200087B0200087B020008BB
:100130007B0200087B0200087B0200087B020008AB
:100140007B0200087B0200087B0200087B0200089B
:100150007B0200087B0200087B0200087B0200088B
:100160007B0200087B0200087B0200087B0200087B
:100170007B0200087B0200087B02000800000000F0
:100180007B0200087B0200087B0200087B0200085B
:100190007B0200087B0200087B0200087B0200084B
:1001A0007B0200087B0200087B02000800F002F8D6
:1001B00000F047F80AA090E8000C82448344AAF1BA
:1001C0000107DA4501D100F03CF8AFF2090EBAE8B8
:1001D0000F0013F0010F18BFFB1A43F0010318477B
:1001E000D8FC0000F8FC0000103A24BF78C878C1A1
:1001F000FAD8520724BF30C830C144BF04680C602D
:10020000704700000023002400250026103A28BF74
:1002100078C1FBD8520728BF30C148BF0B60704778
:10022000642900F07580782900F0AE80732900F011
:100230001F82002070471FB50BF053F91FBD10B58A
:1002400010BD00F04FFA1146FFF7F5FF0AF080F9F4
:1002500000F06DFA03B4FFF7F2FF03BC0AF00BF9EC
:100260000948804709480047FEE7FEE7FEE7FEE74A
:10027000FEE7FEE7FEE7FEE7FEE7FEE70448054986
:10028000054A064B70470000198B0008AD010008B5
:10029000F0AE0220F0B40220F0B00220F0B0022054
:1002A000704700000FB4044910B503AA029800F08B
:1002B000E3F910BC5DF814FB3800002070B50C4663
:1002C0000546012A05D02878800600D5EA69002372
:1002D00002E0012305E05B1C934202D2E05C0028AF
:1002E000F9D1A869E618C01AA861286A18442862DA
:1002F0002846AFF3008004E0D5E9012114F8010B92
:100300009047B442F8D32846AFF3008070BD000098
:100310002DE9F0410646002410687529314616A5DE
:1003200010D0AFF30080002802DA404213A507E0A6
:1003300031688A0701D512A502E0490704D511A545
:10034000012401E0AFF3008000210A2206F1240716
:1003500009E0B0FBF2FCB0FBF2F302FB1C00303012
:1003600078541846491C0028F3D123462A463046C3
:10037000BDE8F04100F011B9000000002D000000C0
:100380002B0000002000000070B504460D462146F9
:100390001068AFF300802188090502D50F4A7A441E
:1003A00002E00E4A7A440E32002104F1240305E0F3
:1003B00000F00F060009965D5E54491C0028F7D135
:1003C00020780023000704D5702D02D009B1022344
:1003D00011322046BDE8704000F0DFB872FA00002C
:1003E0002DE9F0410F460546002028622846E968BD
:1003F000884770B3252805D0D5E901219047286AA0
:10040000401CF2E7E9682846002688476C28044625
:100410000AD0682C08D04C2C35D06A2C31D0742CE2
:1004200031D07A2C2FD016E0E96806462846884756
:10043000B042044608D16C2E23D04FF48066284683
:10044000E9688847044606E06C2E03D04FF48076B6
:1004500001E01EE04026E4B1A4F14100192802D8D1
:10046000203446F400663A46214628462E60FFF7BF
:10047000D7FE60B1012808D0FF1D27F00707083715
:10048000B4E78026DBE70026D9E73F1DAEE720462C
:10049000B2E7286ABDE8F08110B5203AC0F00B80C1
:1004A000B1E81850203AA0E81850B1E81850A0E878
:1004B0001850BFF4F5AF5FEA027C24BFB1E81850D2
:1004C000A0E8185044BF18C918C0BDE810405FEA42
:1004D000827C24BF51F8043B40F8043B08BF7047BE
:1004E000D20728BF31F8023B48BF11F8012B28BFC3
:1004F00020F8023B48BF00F8012B70474FF0013C49
:1005000050F8042B51F8043B9A4221D1A2EB0C0382
:10051000934313EACC1317D150F8042B51F8043B42
:100520009A4215D1A2EB0C03934313EACC130BD1DF
:1005300050F8042B51F8043B9A4209D1A2EB0C036A
:10054000934313EACC13DBD04FF00000704700BF99
:10055000D01A01BAB1FA81F101F0180122FA01F0C2
:10056000CB40C1F12001DBB2C0B2C01A2CFA01F3BA
:10057000D11A914311EAC311E6D170477047704711
:100580007047704710B500F089F8006810BD10B5CD
:10059000044600F083F8046010BD2DE9F0470D46D5
:1005A00099469246044600F124080168880604D55D
:1005B000E06921F01001216000E00120A84201DD86
:1005C000471B00E00027A1697A1902EB0900081A0D
:1005D000A0612078C00602D42046AFF30080002638
:1005E00008E0D4E901211AF806009047206A401C6F
:1005F000761C20624E45F4DB2078C0060AD52046E2
:10060000AFF3008006E0D4E9012130209047206A52
:10061000401C2062381EA7F10107F4DC07E0D4E992
:10062000012118F805009047206A401C2062281E0E
:10063000A5F10105F3DC2046AFF300802078000629
:1006400002D50220BDE8F0870120FBE710B5436921
:1006500013B1AFF3008001E0FFF730FE012010BDC1
:10066000127800F124010A7000224A700122EDE79D
:1006700011684FF0FF32E9E7074B70B50D467B4438
:1006800000F015F80446284600F024F810B14FF0A9
:10069000FF3070BD204670BDB39E0000004870471B
:1006A0008CAE022001694A1C02610878704700B5CF
:1006B0008FB0CDE901310021059105497944CDE99B
:1006C000031011466846FFF78BFE0FB000BD000017
:1006D000E5FFFFFF007B00F0800070470048704797
:1006E0008CAE02207546FFF7F9FFAE46050069465D
:1006F000534620F00700854618B020B5FFF7BEFD31
:10070000BDE820404FF000064FF000074FF0000812
:100710004FF0000B21F00701AC46ACE8C009ACE893
:10072000C009ACE8C009ACE8C0098D46704710B5F7
:100730000446AFF300802046BDE81040FFF78ABDB5
:1007400010B503F0F3FB10BD2DE9F04107460C4650
:100750000026002509E036023919491B491E88B2D6
:1007600000F008F80644681CC5B2A542F3DB304629
:10077000BDE8F08170B50446002603F097FC2546DD
:10078000E11704EB11610912A02202EB4101C8B28A
:1007900003F058FC03F0D6FCE11704EB11610912D9
:1007A000A4EB0121C8B203F04DFC03F0CBFC03F035
:1007B0007DFCA12003F046FC03F0C4FC002003F004
:1007C0000BFC064603F098FC304670BD2DE9F04165
:1007D00005460E461746002409E0E20026FA02F21A
:1007E000D1B22A1990B200F006F8601CC4B2BC4223
:1007F000F3DBBDE8F08170B504460E4603F056FC0D
:100800002546E11704EB11610912A02202EB410118
:10081000C8B203F017FC03F095FCE11704EB11617B
:100820000912A4EB0121C8B203F00CFC03F08AFC0E
:10083000304603F007FC03F085FC03F05DFC0A2062
:1008400009F026FE70BD00BFFEE710B5022009F0DA
:100850002BFE10BD10B500200A490860FFF7F5FF18
:1008600001200949C1F89802FFF7EFFF002007496E
:100870000860FFF7EAFF01200549C1F88C02FFF785
:10088000E4FF10BD8C024442008043429882434200
:100890000000444200B587B000BF002001901B4813
:1008A000006840F08000194908600846006800F0C0
:1008B0008000019000BF00BF00BF002001900846EB
:1008C000006840F4807008600846006800F480709A
:1008D000019000BF00BF4020029011200390012032
:1008E00004900320059002A9094801F071FB08203B
:1008F000029002A9074801F06BFB0120064908603D
:100900000649C1F8980207B000BD00003038024027
:10091000001C0240002002408C02444200804342FE
:1009200010B5012007490860FFF78FFF0120064935
:10093000C1F89802FFF789FF002004490860FFF71B
:1009400084FF10BD8C02444200804342988243429F
:1009500070B505460024002613E06006040E012051
:100960000D490860FFF771FF0C48D0F80C0208B180
:10097000601CC4B2002008490860FFF766FF701CC5
:10098000C6B2082EE9DB15B9FFF7CAFF01E0FFF791
:1009900061FF204670BD000098824342000044423F
:1009A00070B50446002511E0E0090B490860FFF727
:1009B0004CFF01200949C1F89802FFF746FF0020CB
:1009C000074908606006040E681CC5B2082DEBDB01
:1009D00001200149086070BD8C02444200804342FE
:1009E0009882434210B50120094908600949C1F8BD
:1009F0009802FFF72AFF002005490860FFF725FF4E
:100A000000200449C1F89802FFF71FFF10BD000045
:100A10008C0244420080434210B500200749086020
:100A2000FFF713FF01200649C1F89802FFF70DFFF9
:100A3000012002490860FFF708FF10BD8C02444204
:100A40000080434270B50024002501201049086051
:100A5000FFF7FBFE01200F49C1F89802FFF7F5FEF2
:100A600009E0601CC4B2FA2C03DDFFF7D5FF0125B5
:100A700006E0FFF7EAFE0648803800680028F0D15B
:100A800000BF002004490860FFF7DFFE284670BD64
:100A90008C02444200804342988243420EB50821B2
:100AA000314807F035FD40F2162009F0F1FC2F49DE
:100AB0002F4807F007FD00202E49087003202E491B
:100AC00008704BE02A492C480078401C095C2848F3
:100AD000294A1278805C01EB00200A2190FBF1F09A
:100AE00000EE100AB8EEC00A24482249097800EB4B
:100AF000810080ED000A0020102121A22023CDE9F1
:100B000000210290802240F2DA21962007F0F4FEC4
:100B100080201021CDE900101849164B1B7801EBFD
:100B2000830191ED000ABCEEC00A10EE102A1149B3
:100B30000978C1EB01114FF4967303EB41000223D6
:100B400040F2DA2106F0C5FC0A480078401C094949
:100B5000087009480078801C07490870064800782A
:100B60000A28AFDB0EBD00000800002006000020B0
:100B7000EC0000200400002005000020CC00002034
:100B8000B5B1C7B0CAAAB6C8A3BA00000EB508214D
:100B9000374807F0BDFC40F2232009F079FC3549C5
:100BA000354807F08FFC002034490870052034498F
:100BB000087057E0304832490978405CFE281ED062
:100BC0002D492F480078401C085C0C2817D02C4871
:100BD0000078401C095C2848294A1278805C01EBA7
:100BE00000200A2190FBF1F000EE100AB8EEC00AD6
:100BF00024482249097800EB810080ED000A00209A
:100C0000102121A22023CDE90021029080224FF45F
:100C10003E71962007F070FE80201021CDE9001073
:100C20001849164B1B7801EB830191ED000ABCEECD
:100C3000C00A10EE102A11490978C1EB01114FF4D6
:100C4000967303EB410002234FF43E7106F041FC22
:100C50000A480078401C0949087009480078801C3F
:100C600007490870064800780C28A3DB0EBD000079
:100C70001000002006000020E101002004000020F8
:100C800005000020DC000020B5B1C7B0CEC2B6C858
:100C9000A3BA00007047000070B504461D4600234B
:100CA000B5F5804F13D154F822300C480340D1E9F8
:100CB000000640EA06108E6840EA06208E8940EA67
:100CC00006408E693043034344F8223003E06FF05E
:100CD000704044F82200002070BD00000000F0CFFA
:100CE00010B502460023086852F820301B48034024
:100CF000D1E901042043CC6820430C6920434C69AE
:100D000020438C692043CC6920430C6A20434C6A01
:100D100020438C6A2043CC6A2043CC6B20430C6B6D
:100D200020434C6B204303438868082801D143F0DB
:100D30004003086842F82030486BB0F5801F0AD1A4
:100D4000086840B14FF4807008614C6B086920431B
:100D5000146820431060002010BD00008000E0FFF8
:100D600030B5034614460022601C53F8202002F0E0
:100D70004042D1E9000540EA05108D6840EA0520AF
:100D80008D8940EA0545088A401E45EA0055087DE0
:100D9000801E45EA00608D6928430243601C43F8C9
:100DA0002020186800F4801038B1586820F47002D0
:100DB000088A401E42EA00525A60002030BD30B519
:100DC0000246002300240868012816D013686FF338
:100DD0000E03D1E901052843CD6828430D69284356
:100DE0004D6928438D692843CD6928430D6A2843FE
:100DF0004D6A28430343136019E013686FF30E0331
:100E0000D1E9070528434D6A2843034354686FF32B
:100E10000E04D1E901052843CD6828430D69284314
:100E20004D6928438D6928430443136054600020B2
:100E300030BD0246506940EA4100506100207047D1
:100E4000F8B506460C461546002000900027D4E968
:100E500000010843A168491E40EA4110E16840EAE8
:100E6000412000900098306101F0CEF9074609E07A
:100E7000681C38B125B101F0C7F9C01BA84201D9DF
:100E80000320F8BDB06900F020000028F0D100BFB9
:100E9000F7E770B50346154600220024012D1FD048
:100EA0009A6802F070420868401E4E68761E40EA5A
:100EB00006168868401E46EA0026C868401E46EAB4
:100EC0000036088A401E46EA0046888A401E46EAE6
:100ED0000056087E401E46EA006002439A6022E007
:100EE000DA6802F070420868401E4E68761E40EADA
:100EF00006168868401E46EA0026088A401E46EA12
:100F00000046087E401E46EA006002439C6804F0EA
:100F10007044C868401E0603888A401E46EA005096
:100F20000443DA609C60002070BD000010B588B0FA
:100F3000012400BF002000905548006840F0800068
:100F4000534908600846006800F08000009000BF28
:100F500000BF00BF002000900846006840F4807089
:100F600008600846006800F48070009000BF00BF71
:100F70008020019000200290012003900320049023
:100F800001A9444801F024F82002019001200290B8
:100F900001A9414801F01CF8FFF77CFC00203F4903
:100FA0000860142009F074FA01203D49C1F8A0023C
:100FB000322009F06DFA00208DF81800022206A9EF
:100FC000A12000F07DF89DF81800302803D19DF88D
:100FD0001900032807D09DF81900012803D09DF8B7
:100FE0001900022824D19DF819009DF8182000EB63
:100FF00002212CA0FFF756F9012206A9002000F0DB
:101000003FFA012206A9A42000F03AFA16208DF832
:101010001800012206A9802000F032FA0C208DF879
:101020001800012206A9882000F02AFA00242BE0EB
:10103000042206A948F2401000F004FB00208DF8BD
:101040001C0006A91AA0FFF72DF91C48069901609B
:1010500002208DF81800012206A948F2400000F095
:10106000C9FC012206A948F2470000F0EBFA0A2069
:1010700009F00EFA00208DF81800012206A948F2A6
:10108000400000F0B7FC0024204608B010BD00006E
:1010900030380240001C024000200240A0024442BE
:1010A000000044424354502049443A25780D0A0038
:1010B0004354502049443A25730D0A005200002041
:1010C0002DE9F04106460F461546FFF78BFC7020D0
:1010D000FFF766FCFFF7B6FCF0B2FFF761FCFFF725
:1010E000B1FCFFF77FFC7120FFF75AFCFFF7AAFC69
:1010F00000240BE0691EA14201D0012100E0002183
:101100000846FFF725FC3855601CC4B2AC42F1DB41
:10111000FFF782FCBDE8F08171B583B0002001903B
:101120000026CF480078401CCD490870084600785A
:101130000A2190FBF1F201FB120018B1C8480078B7
:101140000A287DDAC7A1C848FFF7D8F9D8B9012223
:1011500003A948F24E1000F075FA9DF80C0000F05B
:101160008000A8B19DF80C0000F00F00BF4909787D
:1011700088420DDC00200190012201A948F24E10A6
:1011800000F038FC04E0012203A90220FFF798FFD9
:101190009DF80C0000F00F00002851D09DF80C00C5
:1011A00000F00F00B1490978884249DC9DF80C0035
:1011B00000F00F01FF208840C4B2AD48858EE043A7
:1011C00080B240F0C000AA49888608468289A748B4
:1011D0000078401E0C3121F81020A548028CA3484D
:1011E0000078401E143121F81020042009F050F935
:1011F00000200190AAE09E48808E9DF804200121E5
:101200009140084000282FD096A19748FFF776F923
:10121000E8BB98499DF8042031F81200042202A985
:1012200000F010FA924890F8440000F00100E0B19C
:101230009DF808009DF8091000EB012081B200E044
:10124000C2E08B480C309DF8042020F812109DF865
:101250000A009DF80B1000EB012081B28448203079
:101260009DF8042020F812106BE09DF808009DF80E
:10127000091000EB012081B27D4820309DF8042048
:1012800020F812109DF80A009DF80B1000E00CE009
:1012900000EB012078490988081A81B274480C30A3
:1012A0009DF8042020F812104BE074499DF80420AA
:1012B00031F81200042202A9FFF702FF6C4890F8EF
:1012C000440000F00100E0B19DF809009DF808100D
:1012D00001F00F0100EB0120654920319DF8042049
:1012E00021F812009DF80B009DF80A1001F00F0183
:1012F00000EB01205E490C319DF8042021F812001A
:101300001FE09DF809009DF8081001F00F0100EBA7
:10131000012059490988081A81B255480C309DF8B6
:10132000042020F812109DF80B009DF80A1001F01F
:101330000F0100EB01204E4920319DF8042021F8D7
:1013400012009DF80400401CC0B201909DF80400FA
:10135000464909788842FFF64EAF01264448808905
:1013600045490988884205DC4148008C4249498842
:10137000884226DD9DF80C0000F00F0001280ADDF0
:101380003B48C0893A4988810846408C088400203F
:101390003349087018E035480078401E34490C3154
:1013A00031F810000C39888130480078401E203117
:1013B00031F8100020390884802003900846858683
:1013C00002E000202649087026A12748FFF796F87A
:1013D000F0B99DF80C0000F08F00802835D124482A
:1013E00090F8340000F0800030B12148808E20F069
:1013F00080001F49888628E04FF6FF701C498881CD
:101400000884084690F8340000F0E00088861CE06C
:101410009DF80C0000F01F00B8B9154890F8340092
:1014200000F0800030B11248808E20F0800010491A
:1014300088860AE04FF6FF700D49888108840846C7
:1014400090F8340000F0E000888605480078F02825
:1014500002DD0A2002490870304604B070BD000069
:101460005800002039313100520000205700002080
:101470005C00002046FC0008300400203CFC000812
:101480002DE9F04105460E4617464FF00008FFF7DC
:10149000A9FA7020FFF784FAFFF7D4FAE8B2FFF751
:1014A0007FFAFFF7CFFA00240BE0305DFFF778FA00
:1014B000FFF7C8FA8046B8F1000F00D003E0601CC7
:1014C000C4B2BC42F1DB00BFFFF7A6FA4046BDE85C
:1014D000F081000000B589B000BF002001904948AC
:1014E000006840F08000474908600846006800F046
:1014F0008000019000BF00BF00BF0020019008469F
:10150000006840F4807008600846006800F480704D
:10151000019000BF00BF80200290002003900120B6
:1015200004900320059002A9374800F051FD4FF4C4
:10153000807002900120039002A9344800F048FD19
:10154000FFF7A8F90020324908600A2008F0A0FF40
:1015500001203049C1F8A0020A2008F099FF80203C
:1015600002900020039004900320059002A92648D1
:1015700000F02EFD642008F08BFF042207A948F23A
:10158000401000F05FF800208DF8200007A922A08D
:10159000FEF788FE23A107A8FEF7B0FF78BB022064
:1015A0008DF81C00012207A948F2400000F022FA41
:1015B000012207A948F2470000F044F89DF81C00FA
:1015C00060280DDA9DF81C1018A0FEF76BFE1C4871
:1015D000808845F21051884202D1012000F0DCF9E8
:1015E0000A2008F055FF00208DF81C00012207A9F1
:1015F00048F2400000F0FEF9002009B000BDFFE70E
:101600000020FAE730380240001C0240002002406F
:10161000A0024442000044424354502049443A2529
:10162000730D0A00393134370000000044656661EB
:10163000756C74205665723A25640D0A000000002E
:10164000300400202DE9F04105460F461646FFF70D
:10165000C9F92820FFF7A4F9FFF7F4F92812FFF7DA
:101660009FF9FFF7EFF9E8B2FFF79AF9FFF7EAF908
:10167000FFF7B8F92920FFF793F9FFF7E3F9002402
:101680000BE0711EA14201D0012100E000210846BB
:10169000FFF75EF93855601CC4B2B442F1DBFFF7C6
:1016A000BBF9BDE8F081000071B583B000240026CD
:1016B000B5480078401CB4490870084600780A21F3
:1016C00090FBF1F201FB120018B1AF4800780A2834
:1016D00071DA012203A948F24E10FFF7B3FF9DF81B
:1016E0000C0000F0800068B19DF80C0000F00F00C5
:1016F000062807DA00200190012201A948F24E10C5
:1017000000F078F99DF80C0000F00F00002852D08E
:101710009DF80C0000F00F000628D9DA9DF80C00A7
:1017200000F00F01FF208840C0B20190974890F868
:1017300034509DF80400C04380B240F0C00093498B
:101740008886084681898182018C01850024C3E056
:101750008E48808E0121A140084000282AD08C4963
:1017600031F81400042202A9FFF76CFF8948808831
:1017700045F21051884236D1844890F8440000F078
:101780000100C8B19DF808009DF8091000EB012088
:1017900081B27E48203020F814109DF80A009DF890
:1017A0000B1000EB0120C0F5487081B277480C3077
:1017B00020F814108EE0BFE09DF808009DF8091095
:1017C00000EB012081B271480C3020F814109DF814
:1017D0000A009DF80B1000EB012081B26B4820300D
:1017E00020F8141076E06B48808844F24231884239
:1017F00035D1664890F8440000F00100B0B19DF882
:1018000008009DF8091000EB012081B25F480C3000
:1018100020F814109DF80A009DF80B1000EB012031
:1018200081B25A48203020F8141053E09DF8080087
:101830009DF8091000EB012081B25448203020F8B7
:1018400014109DF80A009DF80B1000EB0120C0F564
:10185000887081B24D480C3020F814103AE04D48A1
:10186000808844F28431884234D1484890F844005A
:1018700000F00100B0B19DF808009DF8091000EBE0
:10188000012081B241480C3020F814109DF80A0064
:101890009DF80B1000EB012081B23C48203020F86D
:1018A000141017E09DF808009DF8091000EB0120C6
:1018B00081B23648203020F814109DF80A009DF8B7
:1018C0000B1000EB0120C0F5F07081B22F480C30F6
:1018D00020F81410601CC4B2052CFFF639AF0126A5
:1018E0002A4880892B490988884205DC2748008CD2
:1018F0002849498888421CDD9DF80C0000F00F0043
:1019000001280ADD2148C089204988810846408C89
:10191000088400201C4908700EE01C48808A1B497E
:1019200088810846008D08848020039008468586BB
:1019300002E00020144908709DF80C0000F08F00B0
:10194000802817D1114890F8340000F0800030B1A1
:101950000E48808E20F080000C4988860AE04FF601
:10196000FF700A4988810884084690F8340000F026
:10197000E000888604480078F02802DD0A20024949
:101980000870304604B070BD590000205C00002093
:1019900008FD00083004002038B50546002400206A
:1019A0008DF800008DF8015000BF09E09DF800009F
:1019B0000F49095D0844C0B28DF80000601CC4B234
:1019C000B82CF3D39DF80000C043401CC0B28DF882
:1019D0000000B822064948F2470000F00BF8022246
:1019E000694648F2FF0000F005F8002038BD00000D
:1019F00050FC00082DE9F04104460E4617464FF012
:101A00000008FEF7EFFF2820FEF7CAFFFFF71AF8DD
:101A10002012FEF7C5FFFFF715F8E0B2FEF7C0FF92
:101A2000FFF710F800250BE0705DFEF7B9FFFFF738
:101A300009F88046B8F1000F00D003E0681CC5B279
:101A4000BD42F1DB00BFFEF7E7FF4046BDE8F08195
:101A500000B589B000BF002001904848006840F000
:101A60008000464908600846006800F08000019048
:101A700000BF00BF00BF002001900846006840F48E
:101A8000807008600846006800F48070019000BF14
:101A900000BF8020029000200390012004900320CA
:101AA000059002A9364800F093FA4FF48070029036
:101AB0000120039002A9334800F08AFAFEF7EAFEFB
:101AC00000224FF480712F4800F098FB0A2008F0A4
:101AD000DFFC012211022B4800F090FB0A2008F0E5
:101AE000D7FC8020029000200390049003200590F2
:101AF00002A9234800F06CFA642008F0C9FC042213
:101B000007A948F2401000F055F800208DF8200099
:101B100007A91DA0FEF7C6FB1FA107A8FEF7EEFC54
:101B200048BB02208DF81C00012207A948F24000A2
:101B3000FFF760FF012207A948F24700FFF782FD87
:101B40009DF81C00412807DA9DF81C1014A0FEF730
:101B5000A9FB012000F068F90A2008F099FC002098
:101B60008DF81C00012207A948F24000FFF742FF50
:101B7000002009B000BD0120FBE700003038024022
:101B8000001C0240002002404354502049443A25A2
:101B9000730D0A0D0A0000003932373100000000D1
:101BA00044656661756C74205665723A25640D0A49
:101BB000000000002DE9F04105460F461646FEF7ED
:101BC00011FF2820FEF7ECFEFEF73CFF2812FEF77F
:101BD000E7FEFEF737FFE8B2FEF7E2FEFEF732FF60
:101BE000FEF700FF2920FEF7DBFEFEF72BFF0024A7
:101BF0000BE0711EA14201D0012100E00021084646
:101C0000FEF7A6FE3855601CC4B2B442F1DBFEF705
:101C100003FFBDE8F081000071B583B000200190A2
:101C200000267D480078401C7B49087008460078F3
:101C30000A2190FBF1F201FB120018B176480078FE
:101C40000A286EDA012203A948F24E10FFF7B2FF0C
:101C50009DF80C0000F0800068B19DF80C0000F0C9
:101C60000F000B2807DA00200190012201A948F299
:101C70004E1000F007F99DF80C0000F00F0000284E
:101C80004FD09DF80C0000F00F000B28D9DA9DF81A
:101C90000C0000F00F014FF6FF70884084B25F48DF
:101CA000858EE04380B240F0C0005C4988860846DB
:101CB0008189C183018C41860020019053E05748FF
:101CC000808E9DF8042001219140084040B3544982
:101CD0009DF8042031F81200062202A9FFF76AFFDE
:101CE0004E4890F8440000F00100D8B19DF80A0079
:101CF0009DF80B1000EB012081B2484820309DF880
:101D0000042020F812109DF808009DF8091000EB3F
:101D1000012081B241480C309DF8042020F81210B7
:101D20001CE051E09DF80A009DF80B1000EB01202B
:101D3000C0F5487081B239480C309DF8042020F875
:101D400012109DF808009DF8091000EB012081B2E7
:101D5000324820309DF8042020F812109DF804002D
:101D6000401CC0B201909DF804000A28A7DB0126A0
:101D70002A4880892B490988884205DC2748008C3D
:101D80002849498888421CDD9DF80C0000F00F00AE
:101D900001280ADD2148C089204988810846408CF5
:101DA000088400201C4908700EE01C48C08B1B49A9
:101DB00088810846408E08848020039008468586E6
:101DC00002E00020144908709DF80C0000F08F001C
:101DD000802816D1114890F8340000F0800030B10E
:101DE0000E48808E20F080000C49888609E04FF66E
:101DF000FF700A49888108840846808E00F460409C
:101E0000888605480078F02802DD0A20024908701B
:101E1000304604B070BD00005A0000205C00002075
:101E2000CCFD00083004002038B505460024002011
:101E30008DF800008DF8015000BF09E09DF800000A
:101E40000F49095D0844C0B28DF80000601CC4B29F
:101E5000B82CF3D39DF80000C043401CC0B28DF8ED
:101E60000000BA22064948F2470000F00BF80222AF
:101E7000694648F2FF0000F005F8002038BD000078
:101E800012FD00082DE9F04104460E4617464FF0BA
:101E90000008FEF7A7FD2820FEF782FDFEF7D2FD21
:101EA0002012FEF77DFDFEF7CDFDE0B2FEF778FDD6
:101EB000FEF7C8FD00250BE0705DFEF771FDFEF733
:101EC000C1FD8046B8F1000F00D003E0681CC5B228
:101ED000BD42F1DB00BFFEF79FFD4046BDE8F0814B
:101EE0002DE9F05F8246884614462046E21704EB4F
:101EF0005272D2102146E31704EB5373DB10A4EBAC
:101F0000C3030BB1012300E000231A44624302F033
:101F1000FF099AF800600AF1010082460578812ED7
:101F200005DB402D03DBFF2D01D0FF2E0DD14FF03F
:101F3000000B06E0002008F8010B0BF1010000F097
:101F4000FF0BCB45F6DBBDE8F09F7F2D03DAA5F153
:101F50004000C5B202E0A5F14100C5B2A6F1810082
:101F6000C6B2BE2010FB065000FB09F70C2C06D0B1
:101F7000102C0DD0182C14D0202C24D11AE013488A
:101F8000D0F80900C1194A46404608F0B9F91AE0EC
:101F90000E48D0F81100C1194A46404608F0B0F981
:101FA00011E00A48D0F81900C1194A46404608F025
:101FB000A7F908E00548D0F82100C1194A46404673
:101FC00008F09EF900BF00BF00BFBCE760AE022072
:101FD000F8B502460B460025002400200021E6E06B
:101FE000012606FA01F51E6806EA0504AC4273D123
:101FF0005E68022E02D05E68122E13D1CF0802F165
:10200000200656F827004E07F70E0F26BE40B043B5
:102010004F07FF0E1E69BE403043CF0802F1200675
:1020200046F8270010684F000326BE40B0431E79D3
:1020300006F003064F00BE40304310605E68012E7C
:1020400008D05E68022E05D05E68112E02D05E6850
:10205000122E13D190684F000326BE40B0434F00AC
:10206000DE68BE4030439060506801268E40B04329
:102070001E79C6F300168E4030435060D0684F0082
:102080000326BE40B0434F009E68BE403043D06040
:102090005E6806F08056B6F1805FA8D100BF0026CA
:1020A0000096454E366846F48046434F3E603E46B5
:1020B000366806F48046009600BF00BF3F4E8F088A
:1020C00056F827008E07370F0F26BE40B0433C4E10
:1020D000B24202D100262EE068E03A4EB24201D16F
:1020E000012628E0384EB24201D1022623E0374EC5
:1020F000B24201D103261EE0354EB24201D1042680
:1021000019E0344EB24201D1052614E0324EB242FB
:1021100001D106260FE0314EB24201D107260AE076
:102120002F4EB24201D1082605E02E4EB24201D117
:10213000092600E00A268F073F0FBE4030431F4E9E
:102140008F0846F82700284E3068A0435E6806F4E2
:102150008036B6F5803F00D12043234E3060361DD7
:102160003068A0435E6806F40036B6F5003F00D143
:1021700020431D4E361D3060361D3068A0435E681A
:1021800006F48016B6F5801F00D12043164E08369F
:102190003060361D3068A0435E6806F40016B6F560
:1021A000001F00D12043104E0C363060491C10290E
:1021B000FFF416AFF8BD0000443802400838014073
:1021C000000002400004024000080240000C0240EF
:1021D000001002400014024000180240001C02409F
:1021E0000020024000240240003C014002461369E6
:1021F0000B400BB1012000E0002070470AB1816163
:1022000001E00B04836170470148006870470000DB
:102210003000002002480068401C014908607047F7
:102220003000002010B50D48006840F400700B49E4
:1022300008600846006840F480600860084600684E
:1022400040F480700860052000F04EFA0F2000F086
:1022500007F800F0F9F9002010BD0000003C024032
:1022600070B5044600F0B2FD4FF47A71B0FBF1F5A1
:10227000284601F0F7FB00222146501E00F0F6F937
:10228000002070BD70B504460E46154600BF94F898
:10229000A000012801D1022070BD012084F8A00017
:1022A00000BF022084F8A10005EB850101EBC50207
:1022B00004F1380101EB820034223146FEF7ECF8DC
:1022C0002A463146204605F0E9FC01202168486293
:1022D00084F8A10000BF002084F8A00000BF00BF68
:1022E000DAE7000070B50446002500260CB901208D
:1022F00070BD94F8A10028B9002084F8A000204601
:1023000000F084F8022084F8A1002068806920F0A1
:10231000704021688861D4E901010843E1680843FD
:102320002169084321688969084321688861206818
:1023300080683549084021688860A08A05042068C3
:102340008068A16929430843216888602068C068C3
:102350002D4908402168C860A08B05042068C0682A
:10236000216A294308432168C8602068006926491A
:10237000084021680861A08C050420680069A16AF2
:102380002943084321680861206840691E490840C4
:1023900021684861A08D050420684069216B2943AC
:1023A00008432168486194F83500050294F8360026
:1023B00006042068C06A00F07F402168C86246EACF
:1023C000050094F8341008432168C96A084321685D
:1023D000C8622068406B40F00400216848632068B0
:1023E000406B40F00200216848632068806940F03B
:1023F0000100216888610020C4F8A400012084F84D
:10240000A100002074E7000000F800F010B586B0CD
:10241000044600BF002000904D48006840F08060F6
:102420004B4908600846006800F08060009000BFDB
:1024300000BF00BF0020009045481438006840F4F9
:1024400000004349143908600846006800F40000A1
:10245000009000BF00BF00BF002000900846006849
:1024600040F0020008600846006800F0020000909A
:1024700000BF00BF00BF002000900846006840F089
:10248000200008600846006800F02000009000BFAF
:1024900000BF00BF002000900846006840F04000E8
:1024A00008600846006800F04000009000BF00BFD0
:1024B00000BF002000900846006840F080000860DF
:1024C0000846006800F08000009000BF00BF00BF19
:1024D000002000900846006840F4807008600846BC
:1024E000006800F48070009000BF00BF20200190C1
:1024F0000120029003900320049001A91548FFF7E2
:1025000067FD4FF48060019002200290002003904C
:10251000032004900E20059001A90F48FFF758FDF5
:102520004FF40C60019001A90C48FFF751FD4FF4E6
:102530007E40019001A90A48FFF74AFD40F2F7608A
:10254000019001A90748FFF743FD06B010BD000048
:1025500044380240000402400014024000180240C7
:10256000001C0240002002402DE9F04104460E46C6
:102570001746984600BF94F8A000012802D1022017
:10258000BDE8F081012084F8A00000BF022084F89B
:10259000A10008EB880000EBC80104F1380000EB53
:1025A00081052E60A86A30446860AF60E86A3844EC
:1025B000E86042462946204605F070FB012021686C
:1025C000486284F8A10000BF002084F8A00000BF8A
:1025D00000BFD5E72DE9F04105460E46174698465F
:1025E00000BF95F8A000012802D10220BDE8F081CB
:1025F000012085F8A00000BF022085F8A10008EBAB
:10260000880000EBC80105F1380000EB81040020D0
:1026100020602068304460600020A060A0683844DA
:10262000E060A662E76242462146284605F036FB96
:1026300001202968486285F8A10000BF002085F8C4
:10264000A00000BF00BFD1E708B50020009000BF88
:1026500008BD00BF00F01F02012191404209920015
:1026600002F1E022C2F8001100BF70472DE9F05FCF
:1026700080460D461646002705F01CFC07463946E5
:102680002A46334601F00700C0F1070ABAF1040FE9
:1026900002D94FF0040A01E0C0F1070AD14600F167
:1026A000040ABAF1070F02D24FF0000A01E0A0F1CC
:1026B000030AD4464FF0010A0AFA09FAAAF1010AFC
:1026C0000AEA020A0AFA0CFA4FF0010B0BFA0CFBA9
:1026D000ABF1010B0BEA030B4AEA0B04214640461F
:1026E00005F0F0FBBDE8F09F00BF00F00702064BCD
:1026F00019684FF6FF031940044B0B4343EA0221CC
:10270000014B196000BF70470CED00E00000FA05B6
:1027100038B5002400BF002000902348006840F036
:102720008050214908600846006800F08050009001
:1027300000BF00BF0120010491FAA1F1B1FA81F1BB
:102740001A4A42F82100FFF75FFD044607E0FFF751
:102750005BFD001BB0F57A7F01D9032038BD14481A
:10276000406800F48030B0F5803FF0D10120410492
:1027700091FAA1F1B1FA81F10C4A42F82100FFF778
:1027800043FD044607E0FFF73FFD001BB0F57A7FED
:1027900001D90320E2E70648406800F40030B0F5B4
:1027A000003FF0D10020D9E74038024000000E423F
:1027B00000700040F8B5044600250026207800F09F
:1027C000010020B9207800F00200022866D1002024
:1027D000CC498866FFF718FD054606E0FFF714FDB3
:1027E000401B642801D90320F8BDC7480068C0F326
:1027F000C0600028F2D1207800F0010098B147F6BF
:10280000C07191FAA1F1B1FA81F1606888404FF08E
:10281000E04292FAA2F2B2FA82F2A1689140084331
:10282000B94984310860207800F00200022821D1E3
:10283000B5488430006800F0E0404FF0E04191FA84
:10284000A1F1B1FA81F120FA01F660688101207BE3
:1028500041EA006040EA0670AB4984310860AA484A
:102860008C30006820F01F00E169491E0843A6492A
:102870008C3108600120A3498866FFF7C5FC054636
:1028800006E0FFF7C1FC401B642801D90320ABE739
:102890009D480068C0F3C0600028F2D0207800F0A6
:1028A0000400042804D0207800F0080008287DD116
:1028B000002094490867FFF7A7FC054606E0FFF7EC
:1028C000A3FC401B642801D903208DE78E480068D3
:1028D000C0F340700028F2D1207800F004000428F2
:1028E00034D189488830006800F0E0404FF0E04182
:1028F00091FAA1F1B1FA81F120FA01F647F6C0711F
:1029000091FAA1F1B1FA81F1206988404FF070622B
:1029100092FAA2F2B2FA82F26169914008434FF052
:10292000E04191FAA1F1B1FA81F106FA01F108430F
:10293000754988310860081D006820F4F851206A44
:10294000401E41EA002070498C310860207800F078
:102950000800082834D16C488830006800F07060A6
:102960004FF0706191FAA1F1B1FA81F120FA01F60C
:1029700047F6C07191FAA1F1B1FA81F1206988405E
:102980004FF0706191FAA1F1B1FA81F106FA01F10B
:1029900008434FF0E04292FAA2F2B2FA82F2A16941
:1029A0009140084358498831086000E01CE0081D48
:1029B000006820F44030616A084353498C31086054
:1029C000012050490867FFF71FFC054606E0FFF7A6
:1029D0001BFC401B642801D9032005E74A48006816
:1029E000C0F340700028F2D0207800F020002028AA
:1029F0007DD100BF0020009043484030006840F087
:102A000080504149403108600846006800F080501D
:102A1000009000BF00BF3D48006840F480703B4913
:102A20000860FFF7F1FB054606E0FFF7EDFB401BF2
:102A3000642801D90320D7E63448006800F4807088
:102A40000028F2D030487030006800F44070218DCA
:102A500001F4407188424AD02B487030006820F45D
:102A6000407601202A49086000200860264870301E
:102A7000066006F0020098B1FFF7C6FB054608E0C5
:102A8000FFF7C2FB401B41F28831884201D9032085
:102A9000AAE61D4870300068C0F340000028EFD05F
:102AA00000BF208D00F44070B0F5407F0CD1164877
:102AB0000830006820F4F810164AA16A1140084353
:102AC00011490831086007E00F480830006820F419
:102AD000F8100D49083108600B4870300068218DEE
:102AE000C1F30B01084308497031086000BF20782A
:102AF00000F01000102803D194F82C00064908605B
:102B0000002071E60000474200380240007000409B
:102B1000400E4742FFFCFF0FE011474270B50446EC
:102B20000E460025A748006800F00F00B0426FD2A3
:102B3000A4490E700846006800F00F00B04201D0B2
:102B4000012070BD207800F00200022807D19E48C5
:102B5000006820F0F000A16808439B4908602078D5
:102B600000F0010000283ED06068012807D1964897
:102B700008380068C0F34040B8B90120E1E7606858
:102B8000022802D06068032807D18F4808380068FF
:102B9000C0F3406048B90120D3E78B48083800688B
:102BA000C0F3400008B90120CBE78748006820F057
:102BB00003006168084384490860FFF725FB054668
:102BC0006068012810D108E0FFF71EFB401B41F2AE
:102BD0008831884201D90320B3E77B48006800F0C0
:102BE0000C000428F0D1CDE06068022811D108E083
:102BF000FFF70AFB401B41F28831884201D90320CC
:102C00009FE77148006800F00C000828F0D1B9E097
:102C100024E06068032810D108E0FFF7F5FA401BB4
:102C200041F28831884201D903208AE7664800686A
:102C300000F00C000328F0D1A4E008E0FFF7E4FA6C
:102C4000401B41F28831884201D9032079E75E4870
:102C5000006800F00C000028F0D193E0207800F02C
:102C60000200022807D15848006820F0F000A1684F
:102C7000084355490860207800F00100002877D00B
:102C80006068012807D1504808380068C0F3404008
:102C9000B8B9012055E76068022802D060680328AF
:102CA00007D1494808380068C0F3406048B901209E
:102CB00047E7454808380068C0F3400008B90120DC
:102CC0003FE74148006820F00300616808433E493F
:102CD0000860FFF799FA05466068012810D108E0FE
:102CE000FFF792FA401B41F28831884201D9032054
:102CF00027E73548006800F00C000428F0D137E0E1
:102D00006068022810D108E0FFF77EFA401B41F20C
:102D10008831884201D9032013E72B48006800F06E
:102D20000C000828F0D123E06068032810D108E0E7
:102D3000FFF76AFA401B41F28831884201D903202B
:102D4000FFE62148006800F00C000328F0D10FE0F6
:102D500008E0FFF759FA401B41F28831884201D957
:102D60000320EEE61848006800F00C000028F0D1BF
:102D700014490E700846006800F00F00B04201D000
:102D80000120DEE6207800F00400042807D10E4878
:102D9000006820F4E050E16808430B49086020789F
:102DA00000F00800082808D10748006820F46040B7
:102DB000216940EAC100044908600F20FFF750FA7A
:102DC0000020BEE6003C02400838024010B500F08A
:102DD00045F80949096801F0F001F02292FAA2F2DF
:102DE000B2FA82F2D140054A515CC84004490860F9
:102DF0000846006810BD000008380240ECB4000826
:102E00001C00002010B5FFF7E1FF0749096801F435
:102E1000E0514FF4E05292FAA2F2B2FA82F2D140BB
:102E2000024A515CC84010BD08380240ECB40008AA
:102E300010B5FFF7CBFF0749096801F460414FF473
:102E4000604292FAA2F2B2FA82F2D140024A515C96
:102E5000C84010BD08380240ECB4000870B500212D
:102E6000002200230020274C246804F00C0424B125
:102E7000042C04D0082C41D103E0234840E023482F
:102E80003EE0204C241F246804F03F011D4C241F09
:102E9000246804F4800484B11C4CB4FBF1F5194C93
:102EA000241F246847F6C076344096FAA6F6B6FA90
:102EB00086F6F44005FB04F20FE0134CB4FBF1F589
:102EC000104C241F246847F6C076344096FAA6F6C4
:102ED000B6FA86F6F44005FB04F20A4C241F246877
:102EE00004F440344FF4403595FAA5F5B5FA85F56C
:102EF000EC40641C6300B2FBF3F001E0024800BF49
:102F000000BF70BD083802400024F40040787D0105
:102F100038B504460025207800F00100002866D06E
:102F2000F748006800F00C0004280DD0F448006851
:102F300000F00C00082813D1F148001F006800F4CD
:102F40008000B0F5800F0BD1ED4808380068C0F361
:102F5000404000284BD06068002848D1012038BD8F
:102F60000020E749891F0870FFF74EF9054608E081
:102F7000FFF74AF9401B41F28831884201D903200A
:102F8000EDE7DF4808380068C0F340400028EFD183
:102F90002079DB49891F08706068A0B1FFF734F918
:102FA000054608E0FFF730F9401B41F288318842BE
:102FB00001D90320D3E7D24808380068C0F3404065
:102FC0000028EFD013E0FFF71FF9054608E0FFF7F0
:102FD0001BF9401B41F28831884201D90320BEE72A
:102FE000C74808380068C0F340400028EFD1207877
:102FF00000F00200022869D1C148006800F00C000E
:1030000058B1BF48006800F00C00082821D1BC4826
:10301000001F006800F48000D8B9B948083800687B
:10302000C0F3400020B1E068012801D0012096E7FC
:10303000B3480838006820F0F800F82292FAA2F2AB
:10304000B2FA82F2216991400843AD49083908601B
:103050003CE0E06828B30120AA490860FFF7D4F8F3
:10306000054606E0FFF7D0F8401B642801D903208D
:1030700075E7A34808380068C0F340000028F1D085
:103080009F480838006820F0F800F82292FAA2F26F
:10309000B2FA82F2216991400843994908390860DF
:1030A00014E0002097490860FFF7AEF8054606E0F7
:1030B000FFF7AAF8401B642801D903204FE7904886
:1030C00008380068C0F340000028F1D1207800F0F3
:1030D000080008282CD16069A8B101208A4908603D
:1030E000FFF792F8054606E0FFF78EF8401B6428CC
:1030F00001D9032033E782486C300068C0F34000F8
:103100000028F1D014E000207F490860FFF77CF828
:10311000054606E0FFF778F8401B642801D9032034
:103120001DE777486C300068C0F340000028F1D1FB
:10313000207800F0040004286FD100BF0020009028
:103140006F483830006840F080506D493831086071
:103150000846006800F08050009000BF00BF6B4838
:10316000006840F4807069490860FFF74DF8054633
:1031700006E0FFF749F8401B642801D90320EEE67A
:103180006248006800F480700028F2D000205C499A
:1031900068310870FFF738F8054608E0FFF734F8A3
:1031A000401B41F28831884201D90320D7E65448B8
:1031B00068300068C0F340000028EFD1207A504901
:1031C00068310870A068A0B1FFF71EF8054608E056
:1031D000FFF71AF8401B41F28831884201D90320D9
:1031E000BDE6474868300068C0F340000028EFD0D3
:1031F00013E0FFF709F8054608E0FFF705F8401B64
:1032000041F28831884201D90320A8E63C48683061
:103210000068C0F340000028EFD1A069F0B338483F
:10322000006800F00C00082872D0A069022850D174
:10323000002034490866FEF7E7FF054606E0FEF782
:10324000E3FF401B642801D9032088E62C48083896
:103250000068C0F340600028F1D1D4E907010843B9
:1032600047F6C07292FAA2F2B2FA82F2616A914013
:1032700008430122A16AC2EB51014FF4403292FA95
:10328000A2F2B2FA82F2914008434FF0706292FAD1
:10329000A2F2B2FA82F2E16A914000E03AE0084319
:1032A0001749091F0860012016490866FEF7ACFFA0
:1032B000054606E0FEF7A8FF401B642801D903205D
:1032C0004DE60F4808380068C0F340600028F1D090
:1032D00020E000200B490866FEF796FF054606E051
:1032E000FEF792FF401B642801D9032037E604480B
:1032F00008380068C0F340600028F1D10AE007E018
:103300000838024000004742800E474200700040EB
:10331000012024E6002022E670B504460D460CB9D3
:10332000012070BD94F82C0028B9002084F82D00ED
:10333000204600F011F8022084F82C00211D20689E
:10334000FDF73DFD2946D4E90002FDF7A2FD01206D
:1033500084F82C000020E4E710B586B0044600BFD6
:10336000002000904348006840F001004149086097
:103370000846006800F00100009000BF00BF00BFD9
:10338000002000903B480838006840F004003949AC
:10339000083908600846006800F00400009000BF8B
:1033A00000BF00BF002000900846006840F0080001
:1033B00008600846006800F00800009000BF00BFE9
:1033C00000BF002000900846006840F01000086030
:1033D0000846006800F01000009000BF00BF00BF6A
:1033E000002000900846006840F020000860084671
:1033F000006800F02000009000BF00BF00BF002068
:1034000000900846006840F04000086008460068E8
:1034100000F04000009000BF00BF0D20019002208E
:10342000029001200390032004900C20059001A934
:103430001148FEF7CDFD4CF20370019001A90F4831
:10344000FEF7C6FD4FF68370019001A90C48FEF708
:10345000BFFD4FF63F00019001A90A48FEF7B8FDF5
:1034600048F23710019001A90748FEF7B1FD06B0F8
:1034700010BD00003838024000080240000C024035
:1034800000100240001402400018024070B50446CB
:103490000D4694F82C00022800D170BD022084F85B
:1034A0002C0029462068FDF7C4FC012084F82C007C
:1034B0000020F2E770B504460D46164694F82C003D
:1034C000022800D170BD022084F82C003246294623
:1034D0002068FDF7B5FC2868022803D1052084F890
:1034E0002C0002E0012084F82C000020EAE710B54F
:1034F00004460CB9012010BD94F8510028B90020F1
:1035000084F85000204600F037F8022084F851007B
:103510002068006820F0400021680860D4E90101BB
:103520000843E16808432169084361690843218B26
:1035300001F400710843E1690843216A0843A16A64
:103540000843216808600421A06901EA1040616A0B
:103550000843216848602168E06A08612068C06902
:1035600020F400602168C86100206065012084F8B3
:1035700051000020BFE7000010B586B0044600BF30
:10358000002000901748006840F0200015490860AE
:103590000846006800F02000009000BF00BF00BF98
:1035A000002000900F481430006840F480100D494E
:1035B000143108600846006800F48010009000BFD5
:1035C00000BF4FF460700190022002900120039030
:1035D000022004900520059001A90348FEF7F8FC9D
:1035E00006B010BD30380240001402402DE9F84FFB
:1035F00004460E4617461D46DDF828904FF0000899
:10360000C24694F85180B8F1010F02D0B8F1220FF0
:1036100076D10EB107B115B90120BDE8F88F00BF12
:1036200094F85000012801D10220F6E7012084F827
:10363000500000BF94F85100012802D1322084F8D4
:10364000510000206065A763A587E5872663A586EE
:10365000E586A064E064A06AB0F5005F0DD100BF0C
:103660002068006820F40050216808602068006825
:1036700040F400502168086000BF2068006800F036
:103680004000402805D02068006840F040002168D4
:103690000860E068B0F5006F75D1606830B16068AF
:1036A000B0F5827F0CD1E08E012809D1206B008813
:1036B0002168C860206B801C2063E08E401EE0867D
:1036C000E08EF0B9A06AB0F5005F05D1206800680F
:1036D00040F48050216808604B46002201212046BA
:1036E00005F018F808B1032097E72068C068A16BBF
:1036F0000880A06B801CA063E08F401EE087C7E0BD
:103700001BE131E04B4600220221204605F002F881
:1037100008B1032081E7206B00882168C860206B16
:10372000801C2063E08E401EE086E08E48B9A06ACF
:10373000B0F5005F05D12068006840F48050216832
:1037400008604B4600220121204604F0E3FF08B147
:10375000032062E72068C068A16B0880A06B801C12
:10376000A063E08F401EE087E08E0028CADC60681E
:103770000028C4D14B4600220121204604F0CAFF94
:1037800010B1032049E70AE02068C068A16B0880F7
:10379000A06B801CA063E08F401EE08778E060682B
:1037A00030B16068B0F5827F0BD1E08E012808D17E
:1037B000216B481C206308782168C860E08E401E99
:1037C000E086E08ED0B9A06AB0F5005F05D1206830
:1037D000006840F48050216808604B4600220121B7
:1037E000204604F097FF08B1032016E72068C06860
:1037F000A16B0870E08F401EE08749E030E04B4647
:1038000000220221204604F085FF08B1032004E7CE
:10381000216B481C206308782168C860E08E401E38
:10382000E086E08E48B9A06AB0F5005F05D1206857
:10383000006840F48050216808604B460022012156
:10384000204604F067FF08B10320E6E62068C06860
:10385000C1B2A26B501CA0631170E08F401EE087C4
:10386000E08E0028CBDC606890B94B460022012135
:10387000204604F04FFF08B10320CEE62068C06860
:10388000C1B2A26B501CA0631170E08F401EE08794
:10389000A06AB0F5005F12D14B46002201212046FC
:1038A00004F038FF28B1606D40F00200606503202D
:1038B000B3E62068C06880B20090BDF800004B46B7
:1038C00001228021204604F025FF28B1606D40F0E0
:1038D000200060650320A0E6012084F851002068E4
:1038E0008068C0F3001AA06AB0F5005F1FD1BAF17A
:1038F000000F1CD0606D40F002006065A06AB0F55A
:10390000005F0DD100BF2068006820F400502168DE
:1039100008602068006840F400502168086000BF1B
:1039200000BF002084F8500000BF012075E600BFF2
:10393000002084F8500000BF6FE602206DE670B5ED
:1039400004460E4615460CB9012070BD94F8490096
:1039500028B9002084F84800204600F01DF804F142
:1039600008012068FDF7BCF93146A2682068FDF720
:10397000F7F92946236BD4E90102FDF78DF9A16817
:10398000206850F8210040F00100A268216841F849
:1039900022000020D9E7000010B586B0044600BF21
:1039A000002000902248006840F001002049086093
:1039B0000846006800F00100009000BF00BF00BF93
:1039C000002000901A480838006840F008001849A4
:1039D000083908600846006800F00800009000BF41
:1039E00000BF00BF002000900846006840F01000B3
:1039F00008600846006800F01000009000BF00BF9B
:103A00004EF2B37001900220029001200390032037
:103A100004900C20059001A90648FEF7D9FA4FF64C
:103A20008070019001A90448FEF7D2FA06B010BDDB
:103A300038380240000C024000100240042808D12F
:103A40004FF0E021096941F004014FF0E0221161DB
:103A500007E04FF0E021096921F004014FF0E02276
:103A60001161704770B504462546681EB0F1807F2D
:103A700001D301200FE0681E4FF0E02148610F21C3
:103A80004FF0FF3004F01EFA00204FF0E021886173
:103A900007200861002070BD7047F8B50446002576
:103AA00000262068006800F001052068C06800F466
:103AB00080767DB176B100BF00200090206800685C
:103AC000009020684068009000BF00BFE06B40F0AD
:103AD0000100E06320680068C0F340052068406989
:103AE00000F001067DB176B100BF00200090206893
:103AF0000068009020684068009000BF00BFE06B45
:103B000040F00400E06320680068C0F3800520688E
:103B1000406900F001067DB176B100BF0020009041
:103B200020680068009020684068009000BF00BFD7
:103B3000E06B40F00200E06320680068C0F3C0055D
:103B40002068406900F001067DB176B100BF002019
:103B5000009020680068009020684068009000BFD6
:103B600000BFE06B40F00800E06320680068C0F32D
:103B700040152068C06800F020061DB116B120462F
:103B800006F0D6F820680068C0F3C0152068C06849
:103B900000F080061DB116B1204606F039FA206803
:103BA0000068C0F380152068C06800F040061DB1B1
:103BB00016B1204606F0A4F8E06B28B1012084F885
:103BC00039002046FFF768FFF8BD10B504460CB970
:103BD000012010BDA06900B100E000BF94F83900D9
:103BE00028B9002084F83800204600F025F802208B
:103BF00084F839002068C06820F400502168C8604B
:103C0000204606F0F3F82068006920F4904021680F
:103C100008612068406920F02A0021684861206816
:103C2000C06840F400502168C8600020E0630120B3
:103C300084F839000020CCE710B586B00446284946
:103C4000206888424AD100BF0020009025480068C3
:103C500040F00100234908600846006800F00100B8
:103C6000009000BF00BF00BF002000901D4814302E
:103C7000006840F010001B491431086008460068D5
:103C800000F01000009000BF00BF48150190022016
:103C9000029001200390022004900720059001A9C2
:103CA0001148FEF795F94FF48060019001A90E4884
:103CB000FEF78EF92068C06820F040002168C860D7
:103CC0002068C06840F020002168C8602520FEF709
:103CD000C0FC032211462520FEF7C8FC06B010BD2B
:103CE0000010014030380240000002402DE9F0474A
:103CF00004460D46164699464FF0000894F8398060
:103D0000B8F1010F02D0B8F1120F69D105B116B99F
:103D10000120BDE8F08700BF94F83800012801D1E8
:103D20000220F6E7012084F8380000BF0020E0639D
:103D300094F83900122803D1322084F8390002E0C7
:103D4000222084F83900A685E68535E0E08D401E06
:103D5000E085A068B0F5805F18D14B460022202195
:103D6000204606F08DF908B10320D2E72F462069DE
:103D700030B920684068C0F308003880AD1C1BE0F3
:103D800020684068C0B238806D1C15E04B460022A8
:103D90002021204606F074F908B10320B9E7206914
:103DA00020B92068406805F8010B05E020684068EC
:103DB00000F07F0005F8010BE08D0028C6DC94F8C8
:103DC0003900322803D1122084F8390002E00120A2
:103DD00084F8390000BF002084F8380000BF98E75D
:103DE000022096E770472DE9F04704460D46164637
:103DF00099464FF0000894F83980B8F1010F02D0CD
:103E0000B8F1220F65D105B116B90120BDE8F087E0
:103E100000BF94F83800012801D10220F6E7012004
:103E200084F8380000BF0020E06394F839002228AD
:103E300003D1322084F8390002E0122084F83900DE
:103E4000A684E68428E0E08C401EE084A068B0F5FB
:103E5000805F14D14B4600228021204606F010F9E5
:103E600008B10320D2E72F463888C0F30800216844
:103E70004860206908B9AD1C0EE06D1C0CE04B4693
:103E800000228021204606F0FBF808B10320BDE7A0
:103E900015F8010B21684860E08C0028D3DC4B4604
:103EA00000224021204606F0EBF808B10320ADE7E0
:103EB00094F83900322803D1222084F8390002E036
:103EC000012084F8390000BF002084F8380000BFCA
:103ED0009CE702209AE7704700BFFEE710B500207C
:103EE0000F4908600F48006820F440600D490860E1
:103EF0000846006840F48060086000200A49C1F864
:103F00009402022006F0D0FA012005490860022040
:103F100006F0CAFA00200449C1F8900210BD000062
:103F200090824342001C02400080434200B587B0AB
:103F300000BF002001901048006840F080000E494A
:103F400008600846006800F08000019000BF00BFD4
:103F5000302002900120039004900220059002A9D5
:103F60000648FEF735F80120054908600549C1F803
:103F7000900207B000BD000030380240001C024033
:103F8000948243420080434210B500200F490860EC
:103F90000F48006820F440600D490860084600683A
:103FA00040F48060086001200A49C1F894020220B0
:103FB00006F07AFA012005490860022006F074FA3A
:103FC00000200449C1F8900210BD000090824342D5
:103FD000001C02400080434270B50546002416488C
:103FE000006820F4406014490860084600680860D2
:103FF000002616E0002011490860022006F054FA5D
:1040000001200F49C1F890026006040E0B487C386D
:10401000006808B1601CC4B2012006F045FA701CAB
:10402000C6B2082EE6DB15B9FFF7AEFF01E0FFF7D9
:1040300055FF204670BD0000001C024090824342A4
:104040000080434270B504461548006820F4406083
:10405000134908600846006840F48060086000204A
:1040600010490860002517E0E0090E49091D0860A5
:104070006006040E022006F017FA01200A49C1F872
:104080009002022006F010FA002006490860022083
:1040900006F00AFA681CC5B2082DE5DB70BD000009
:1040A000001C0240908243420080434210B50F48FA
:1040B000006820F440600D4908600846006840F43C
:1040C0008060086001200A4908600A49C1F890022E
:1040D000042006F0E9F9002005490860042006F0F4
:1040E000E3F900200349C1F8900210BD001C024012
:1040F000948243420080434210B50F48006820F488
:1041000040600D4908600846006840F4806008601F
:1041100000200A4908600A49C1F89402042006F008
:10412000C3F9012005490860042006F0BDF901200B
:104130000349C1F8940210BD001C02409082434222
:104140000080434210B500241348006820F440600A
:104150001149086008460068086001200F4908609E
:1041600006F0A2F901200E49C1F8900206F09CF970
:1041700007E0601CC4B2FA2C03DDFFF7BDFF01208D
:1041800010BD0648803800680028F2D10349091F95
:10419000086000BFF4E70000001C02409482434224
:1041A0000080434200B587B000BF00200190264840
:1041B000006840F00100244908600846006800F0EB
:1041C0000100019000BF00BF00BF00200190084621
:1041D000006840F0040008600846006800F0040031
:1041E000019000BF00BF00BF00200190084600689A
:1041F00040F0800008600846006800F080000190F0
:1042000000BF00BF01200290002003900220049014
:104210000320059002A90D48FDF7DAFE4FF4005087
:10422000029000200390012004900320059002A931
:104230000748FDF7CDFE0C20029002A90548FDF7C6
:10424000C7FE07B000BD0000303802400000024049
:1042500000080240001C024070B5044600260D48CC
:1042600005880D48006818B1204603F0E9F90FE011
:104270000848408845430021084602F06DFF03F0DE
:104280009FF9002602E005490C80761CAE42FAD365
:1042900070BD0000300400205C05002000000860B4
:1042A00010B50446624884716248006850B12046E7
:1042B00003F0ECF95F48C08A5D4908805D48008BD7
:1042C000488010BD002C57D1F020594908804FF488
:1042D000A07048800846808849F2413188420BD05E
:1042E0005348808845F21031884205D05048808874
:1042F00047F28971884214D12C204D4908812A2027
:1043000048812B2088810846808845F210318842F8
:1043100006D14FF4A070464908804FF4F0704880F1
:1043200081E04348808845F21051884210D14FF413
:1043300030503F4908814FF4285048814FF42C50A9
:1043400088814FF4F07008804FF4487048806AE02C
:104350003748808841F66311884264D12C20344963
:1043600008812B2048812A2088814FF4F070088032
:104370004FF44870488056E04FF4A0702C490880F4
:10438000F02048800846808849F2413188420BD0AD
:104390002748808845F21031884205D0244880881B
:1043A00047F28971884207D12C20214908812A20AF
:1043B00048812B20888129E01D48808845F21051D2
:1043C000884210D14FF43050194908814FF42850D9
:1043D00048814FF42C5088814FF4487008804FF486
:1043E000F070488012E01248808841F663118842DC
:1043F0000CD12C200E4908812A2048812B2088814D
:104400004FF4487008804FF4F07048800848808866
:1044100045F21031884206D14FF4F070044908800B
:104420004FF4A0704880002002F056FD00BF48E71E
:10443000300400205C0500202DE9FF4F85B0814647
:104440008A460020049003900798A0EB090508987D
:10445000A0EB0A06CDF80890CDF804A0002D01DDF0
:10446000012705E00DB9002702E04FF0FF376D424C
:10447000002E02DD4FF0010806E016B94FF00008EB
:1044800002E04FF0FF387642B54201DD2C4600E0F5
:1044900034464FF0000B21E0019A91B2029A90B29B
:1044A00000F022F8049828440490039830440390C4
:1044B0000498A04205DD0498001B0490029838443B
:1044C00002900398A04205DD0398001B0390019819
:1044D000404401900BF101001FFA80FB601C8345F2
:1044E000DADD09B0BDE8F08F70B504460D460A4824
:1044F000006830B1094829460268204603F0DCF81C
:1045000009E02946204602F027FE03F059F8034847
:1045100000880349088070BD5C0500204000002031
:10452000000008602DE9F04104460D4616461F467E
:104530002B46324629462046FFF77EFF3B46224661
:1045400029462046FFF778FF3B463246394620464B
:10455000FFF772FF3B46324629463046FFF76CFFB5
:10456000BDE8F0812DE9F04706460F46904600244D
:1045700045460320A0EB48093CE07A1B91B2321972
:1045800090B2FFF7B1FF3A1B91B2721990B2FFF7E8
:10459000ABFF3A1991B2721990B2FFF7A5FF7A19E1
:1045A00091B2321990B2FFF79FFF7A1991B2321B84
:1045B00090B2FFF799FF3A1991B2721B90B2FFF7D0
:1045C00093FF7A1B91B2321B90B2FFF78DFF3A1B1B
:1045D00091B2721B90B2FFF787FF641CB9F1000F14
:1045E00003DAA000801D814404E0601B80000A30D3
:1045F00081446D1EAC42C0DDBDE8F08770B5044655
:104600000D4616464648006828B1324629462046DF
:1046100003F052F870BD4348808849F24131884226
:104620000BD04048808845F21031884205D03D4883
:10463000808847F28971884214D13A49488902F04A
:10464000B3FF201202F0A4FFE0B202F0A1FF35494F
:10465000888902F0A9FF281202F09AFFE8B202F05E
:1046600097FF54E02F48808845F21051884220D1AE
:104670002C49488902F098FF201202F089FF29494D
:104680004989491C88B202F08FFFE0B202F080FF36
:104690002449888902F088FF281202F079FF214915
:1046A0008989491C88B202F07FFFE8B202F070FFEE
:1046B0002DE01C48808841F66311884227D11948B3
:1046C000807920B917480088401E001B84B2154924
:1046D000488902F069FF201202F05AFFE0B202F0AE
:1046E00057FF201202F054FFE0B202F051FF0D49D3
:1046F000888902F059FF281202F04AFFE8B202F05E
:1047000047FF281202F044FFE8B202F041FF0548DB
:10471000008905490880891C0E8000BF7AE70000E7
:104720005C05002030040020FEFF07602DE9F84FF3
:1047300005460E4617469846DDF828904FF0000BC8
:104740001448006840B143463A4631462846CDF801
:10475000009002F0D9FF1BE0781B401C1FFA80FB81
:10476000344613E02146284602F0F6FC02F028FF0A
:104770004FF0000A06E00849A1F800900AF1010094
:104780001FFA80FADA45F6DB601C84B24445E9DDA5
:10479000BDE8F88F5C0500200000086000B595B00A
:1047A00003F00CFAFE4988800846808818B103F0AF
:1047B0005DF802F010BB00BF00200190F9480068CE
:1047C00040F00200F74908600846006800F0020067
:1047D000019000BF00BF2020109001201190129086
:1047E0000320139010A9F048FDF7F2FB4FF0204092
:1047F000EE490860EE484860002088600021EB48E0
:10480000C16001611021416100218161C16141628A
:104810004FF4805181620021C1624FF480410163F5
:104820000021416381634FF48011C1630F2009901F
:1048300000200A9046200B9000200F900F2002903D
:10484000002003900F2004900020089002AA09A9DC
:10485000D648FFF774F8322005F01AFED32002F094
:10486000A3FE02F0FFFACE49888002F0FBFACC49A1
:10487000888002F0F7FACA498880084680884FF697
:10488000FF7101EA0020C649888002F0EBFAC449B2
:1048900089880843C24988800846808849F24131A6
:1048A00088427DD0042002F07FFE02F0DBFABC4992
:1048B000888002F0D7FABA49888002F0D3FAB84962
:1048C0008880084680884FF6FF7101EA0020B449CD
:1048D000888002F0C7FAB24989880843B0498880C5
:1048E0000846808848F25251884203D147F28970C5
:1048F000AB498880AA48808847F289718842D0D025
:10490000D42002F051FE02F0ADFAA549888002F0F1
:10491000A9FAA349888002F0A5FAA149888008462F
:1049200080884FF6FF7101EA00209D49888002F0DF
:1049300099FA9B4989880843994988800846808864
:1049400045F2103188426BD055214FF4704002F08F
:1049500041FEAA214FF2010002F03CFE52214FF22B
:10496000020002F037FE08214FF2030002F032FE8F
:1049700001214FF2040002F02DFE4FF4454002F0F9
:1049800013FE02F06FFA86498880084680884FF649
:10499000FF7101EA0020824988804CF2015000E05A
:1049A0003EE002F001FE02F05DFA7D49898808438D
:1049B0007B498880052005F06BFD79488088B0F53B
:1049C000004F03D145F210507549888074488088A3
:1049D00045F21051884223D0A12002F0E5FD02F0FB
:1049E00041FA6F49888002F03DFA6D498880084697
:1049F00080884FF6FF7101EA00206949888002F043
:104A000031FA674989880843654988800846808863
:104A100045F26171884203D141F663106049888094
:104A20005F48818863A0FBF73DFC5D48808849F2C0
:104A3000413188427ED1CF2002F0B6FD002002F045
:104A4000A7FDC12002F0A4FD302002F0A1FDED2061
:104A500002F0AAFD642002F09BFD032002F098FD05
:104A6000122002F095FD812002F092FDE82002F074
:104A70009BFD852002F08CFD102002F089FD7A203C
:104A800002F086FDCB2002F08FFD392002F080FD80
:104A90002C2002F07DFD002002F07AFD342002F08F
:104AA00077FD022002F074FDF72002F07DFD20204A
:104AB00002F06EFDEA2002F077FD002002F068FDB2
:104AC000002002F065FDC02002F06EFD1B2002F008
:104AD0005FFDC12002F068FD012002F059FDC520F4
:104AE00002F062FD302002F053FD302002F050FD54
:104AF000C72002F059FDB72002F04AFD362002F02F
:104B000053FD482002F044FD3A2002F04DFD5520AF
:104B100002F03EFDB12002F047FD002002F038FD1A
:104B20001A2002F035FDB62002F03EFD0A2002F008
:104B30002FFD00E0A9E0A22002F02AFDF22002F001
:104B400033FD002002F024FD262002F02DFD01207F
:104B500002F01EFDE02002F027FD0F2002F018FDFC
:104B60002A2002F015FD282002F012FD082002F094
:104B70000FFD0E2002F00CFD082002F009FD54206C
:104B800002F006FDA92002F003FD432002F000FD23
:104B90000A2002F0FDFC0F2002F0FAFC002011E0D8
:104BA000300400203038024000040240E0030020BE
:104BB000040100A0204C43442049443A25780D0AC2
:104BC0000000000002F0E4FC002002F0E1FC002004
:104BD00002F0DEFC002002F0DBFCE12002F0E4FC4D
:104BE000002002F0D5FC152002F0D2FC172002F0C4
:104BF000CFFC072002F0CCFC112002F0C9FC0620FB
:104C000002F0C6FC2B2002F0C3FC562002F0C0FCD0
:104C10003C2002F0BDFC052002F0BAFC102002F09E
:104C2000B7FC0F2002F0B4FC3F2002F0B1FC3F20A3
:104C300002F0AEFC0F2002F0ABFC2B2002F0B4FC23
:104C4000002002F0A5FC002002F0A2FC012002F0EE
:104C50009FFC3F2002F09CFC2A2002F0A5FC0020D3
:104C600002F096FC002002F093FC002002F090FC81
:104C7000EF2002F08DFC112002F096FC782005F068
:104C800007FC292002F090FC93E5FE48808847F25B
:104C9000897188427ED1112002F086FC782005F0CF
:104CA000F7FB362002F080FC002002F071FC3A2075
:104CB00002F07AFC052002F06BFCB22002F074FCDA
:104CC0000C2002F065FC0C2002F062FC002002F0D7
:104CD0005FFC332002F05CFC332002F059FCB7206B
:104CE00002F062FC352002F053FCBB2002F05CFCB9
:104CF000322002F04DFCC02002F056FC0C2002F0E5
:104D000047FCC22002F050FC012002F041FCC3200D
:104D100002F04AFC102002F03BFCC42002F044FCEC
:104D2000202002F035FCC62002F03EFC0F2002F0ED
:104D30002FFCD02002F038FCA42002F029FCA12096
:104D400002F026FCE02002F02FFCD02002F020FC34
:104D5000002002F01DFC022002F01AFC072002F0E5
:104D600017FC0A2002F014FC282002F011FC32206B
:104D700002F00EFC442002F00BFC422002F008FC82
:104D8000062002F005FC0E2002F002FC122002F0C8
:104D9000FFFB00E054E0142002F0FAFB172002F0C1
:104DA000F7FBE12002F000FCD02002F0F1FB002034
:104DB00002F0EEFB022002F0EBFB072002F0E8FB22
:104DC0000A2002F0E5FB282002F0E2FB312002F08D
:104DD000DFFB542002F0DCFB472002F0D9FB0E2061
:104DE00002F0D6FB1C2002F0D3FB172002F0D0FB10
:104DF0001B2002F0CDFB1E2002F0CAFB2A2002F08D
:104E0000D3FB002002F0C4FB002002F0C1FB002015
:104E100002F0BEFBEF2002F0BBFB2B2002F0C4FB34
:104E2000002002F0B5FB002002F0B2FB012002F0EE
:104E3000AFFB3F2002F0ACFB292002F0B5FBB8E449
:104E40009048808845F21031884240F07C87ED2000
:104E500002F0AAFB012002F09BFBFE2002F098FB6F
:104E6000EE2002F0A1FBDE2002F092FB212002F0F6
:104E70008FFBF12002F098FB012002F089FBDF207C
:104E800002F092FB102002F083FBC42002F08CFBA6
:104E90008F2002F07DFBC62002F086FB002002F08E
:104EA00077FBE22002F074FBE22002F071FBE220CB
:104EB00002F06EFBBF2002F077FBAA2002F068FB35
:104EC000B02002F071FB0D2002F062FB002002F026
:104ED0005FFB0D2002F05CFB002002F059FB11206B
:104EE00002F056FB002002F053FB192002F050FBA9
:104EF000002002F04DFB212002F04AFB002002F0CE
:104F000047FB2D2002F044FB002002F041FB3D2036
:104F100002F03EFB002002F03BFB5D2002F038FB7C
:104F2000002002F035FB5D2002F032FB002002F091
:104F30002FFBB12002F038FB802002F029FB00207B
:104F400002F026FB8B2002F023FB002002F020FB66
:104F5000962002F01DFB002002F01AFBB22002F0A6
:104F600023FB002002F014FB002002F011FB0220C2
:104F700002F00EFB002002F00BFB032002F008FB06
:104F8000002002F005FBB32002F00EFB002002F02F
:104F9000FFFA002002F0FCFA002002F0F9FA0020EB
:104FA00002F0F6FA002002F0F3FA002002F0F0FA24
:104FB000002002F0EDFA002002F0EAFA002002F0F0
:104FC000E7FA002002F0E4FA002002F0E1FA002003
:104FD00002F0DEFA002002F0DBFA002002F0D8FA3C
:104FE000002002F0D5FA002002F0D2FA002002F0F0
:104FF000CFFA002002F0CCFA002002F0C9FA00201B
:1050000002F0C6FA002002F0C3FA002002F0C0FA53
:10501000002002F0BDFA002002F0BAFAB42002F03B
:10502000C3FA8B2002F0B4FA002002F0B1FA962005
:1050300002F0AEFA002002F0ABFAA12002F0A8FACA
:10504000002002F0A5FAB52002F0AEFA022002F02C
:105050009FFA002002F09CFA032002F099FA002047
:1050600002F096FA042002F093FA002002F090FA7F
:10507000B62002F099FA002002F08AFA002002F02D
:1050800087FA01E030040020B72002F08DFA0020FA
:1050900002F07EFA002002F07BFA3F2002F078FA5C
:1050A000002002F075FA5E2002F072FA002002F091
:1050B0006FFA642002F06CFA002002F069FA8C208A
:1050C00002F066FA002002F063FAAC2002F060FA07
:1050D000002002F05DFADC2002F05AFA002002F013
:1050E00057FA702002F054FA002002F051FA902092
:1050F00002F04EFA002002F04BFAEB2002F048FAE0
:10510000002002F045FADC2002F042FA002002F012
:105110003FFAB82002F048FA002002F039FA0020E5
:1051200002F036FA002002F033FA002002F030FAE2
:10513000002002F02DFA002002F02AFA002002F0EE
:1051400027FA002002F024FABA2002F02DFA2420D7
:1051500002F01EFA002002F01BFA002002F018FAFA
:10516000002002F015FAC12002F01EFA202002F001
:105170000FFA002002F00CFA542002F009FA002085
:1051800002F006FAFF2002F003FA002002F000FA13
:10519000C22002F009FA0A2002F0FAF9002002F017
:1051A000F7F9042002F0F4F9002002F0F1F9C3202D
:1051B00002F0FAF93C2002F0EBF9002002F0E8F9E5
:1051C0003A2002F0E5F9002002F0E2F9392002F07D
:1051D000DFF9002002F0DCF9372002F0D9F90020D5
:1051E00002F0D6F93C2002F0D3F9002002F0D0F909
:1051F000362002F0CDF9002002F0CAF9322002F088
:10520000C7F9002002F0C4F92F2002F0C1F90020F4
:1052100002F0BEF92C2002F0BBF9002002F0B8F930
:10522000292002F0B5F9002002F0B2F9262002F0A0
:10523000AFF9002002F0ACF9242002F0A9F9002017
:1052400002F0A6F9242002F0A3F9002002F0A0F950
:10525000232002F09DF9002002F09AF93C2002F090
:1052600097F9002002F094F9362002F091F900201D
:1052700002F08EF9322002F08BF9002002F088F95A
:105280002F2002F085F9002002F082F92C2002F094
:105290007FF9002002F07CF9292002F079F9002042
:1052A00002F076F9262002F073F9002002F070F97E
:1052B000242002F06DF9002002F06AF9242002F0A7
:1052C00067F9002002F064F9232002F061F9002060
:1052D00002F05EF9C42002F067F9622002F058F98A
:1052E000002002F055F9052002F052F9002002F0EA
:1052F0004FF9842002F04CF9002002F049F9F02027
:1053000002F046F9002002F043F9182002F040F9BB
:10531000002002F03DF9A42002F03AF9002002F04A
:1053200037F9182002F034F9002002F031F950204A
:1053300002F02EF9002002F02BF90C2002F028F9DF
:10534000002002F025F9172002F022F9002002F0D7
:105350001FF9952002F01CF9002002F019F9F32042
:1053600002F016F9002002F013F9E62002F010F91D
:10537000002002F00DF9C52002F016F9322002F0EB
:1053800007F9002002F004F9442002F001F900209E
:1053900002F0FEF8652002F0FBF8002002F0F8F8B9
:1053A000762002F0F5F8002002F0F2F8882002F0F2
:1053B000EFF8002002F0ECF8C62002F0F5F820200B
:1053C00002F0E6F8002002F0E3F8172002F0E0F81F
:1053D000002002F0DDF8012002F0DAF8002002F0EF
:1053E000D7F8C72002F0E0F8002002F0D1F8002042
:1053F00002F0CEF8002002F0CBF8002002F0C8F84E
:10540000C82002F0D1F8002002F0C2F8002002F01B
:10541000BFF8002002F0BCF8002002F0B9F8C92063
:1054200002F0C2F8002002F0B3F8002002F0B0F859
:10543000002002F0ADF8002002F0AAF8002002F0EF
:10544000A7F8002002F0A4F8002002F0A1F8002044
:1054500002F09EF8002002F09BF8002002F098F87D
:10546000002002F095F8002002F092F8002002F0EF
:105470008FF8002002F08CF8002002F089F800205C
:1054800002F086F8E02002F08FF8162002F080F893
:10549000002002F07DF81C2002F07AF8002002F0D3
:1054A00077F8212002F074F8002002F071F836201D
:1054B00002F06EF8002002F06BF8462002F068F867
:1054C000002002F065F8522002F062F8002002F09D
:1054D0005FF8642002F05CF8002002F059F87A20AE
:1054E00002F056F8002002F053F88B2002F050F83A
:1054F000002002F04DF8992002F04AF8002002F056
:1055000047F8A82002F044F8002002F041F8B92042
:1055100002F03EF8002002F03BF8C42002F038F818
:10552000002002F035F8CA2002F032F8002002F024
:105530002FF8D22002F02CF8002002F029F8D92010
:1055400002F026F8002002F023F8E02002F020F814
:10555000002002F01DF8F32002F01AF8002002F0FB
:1055600017F8E12002F020F8162002F011F80020D0
:1055700002F00EF81C2002F00BF8002002F008F8F0
:10558000222002F005F8002002F002F8362001F097
:10559000FFFF002001F0FCFF452001F0F9FF002093
:1055A00001F0F6FF522001F0F3FF002001F0F0FFC0
:1055B000642001F0EDFF002001F0EAFF7A2001F005
:1055C000E7FF002001F0E4FF8B2001F0E1FF002065
:1055D00001F0DEFF992001F0DBFF002001F0D8FF91
:1055E000A82001F0D5FF002001F0D2FFB92001F082
:1055F000CFFF002001F0CCFFC42001F0C9FF002044
:1056000001F0C6FFCA2001F0C3FF002001F0C0FF77
:10561000D22001F0BDFF002001F0BAFFD82001F038
:10562000B7FF002001F0B4FFE02001F0B1FF00203F
:1056300001F0AEFFF32001F0ABFF002001F0A8FF66
:10564000E22001F0B1FF052001F0A2FF002001F0EF
:105650009FFF0B2001F09CFF002001F099FF1B2011
:1056600001F096FF002001F093FF342001F090FF3D
:10567000002001F08DFF442001F08AFF002001F09E
:1056800087FF4F2001F084FF002001F081FF61209F
:1056900001F07EFF002001F07BFF792001F078FF10
:1056A000002001F075FF882001F072FF002001F05A
:1056B0006FFF972001F06CFF002001F069FFA6202A
:1056C00001F066FF002001F063FFB72001F060FFEA
:1056D000002001F05DFFC22001F05AFF002001F020
:1056E00057FFC72001F054FF002001F051FFD120E7
:1056F00001F04EFF002001F04BFFD62001F048FFE3
:10570000002001F045FFDD2001F042FF002001F004
:105710003FFFF32001F03CFF002001F039FFE320C0
:1057200001F042FF052001F033FF002001F030FFBF
:105730000A2001F02DFF002001F02AFF1C2001F0BB
:1057400027FF002001F024FF332001F021FF00207B
:1057500001F01EFF442001F01BFF002001F018FFA4
:10576000502001F015FF002001F012FF622001F02F
:105770000FFF002001F00CFF782001F009FF00204E
:1057800001F006FF882001F003FF002001F000FF78
:10579000972001F0FDFE002001F0FAFEA62001F0A6
:1057A000F7FE002001F0F4FEB72001F0F1FE00202A
:1057B00001F0EEFEC22001F0EBFE002001F0E8FE59
:1057C000C72001F0E5FE002001F0E2FED12001F04B
:1057D000DFFE002001F0DCFED52001F0D9FE002024
:1057E00001F0D6FEDD2001F0D3FE002001F0D0FE56
:1057F000F32001F0CDFE002001F0CAFEE42001F00C
:10580000D3FE012001F0C4FE002001F0C1FE012002
:1058100001F0BEFE002001F0BBFE022001F0B8FE48
:10582000002001F0B5FE2A2001F0B2FE002001F0B8
:10583000AFFE3C2001F0ACFE002001F0A9FE4B20A1
:1058400001F0A6FE002001F0A3FE5D2001F0A0FE05
:10585000002001F09DFE742001F09AFE002001F06E
:1058600097FE842001F094FE002001F091FE932029
:1058700001F08EFE002001F08BFEA22001F088FED8
:10588000002001F085FEB32001F082FE002001F02F
:105890007FFEBE2001F07CFE002001F079FEC420D6
:1058A00001F076FE002001F073FECD2001F070FEC5
:1058B000002001F06DFED32001F06AFE002001F00F
:1058C00067FEDD2001F064FE002001F061FEF320A0
:1058D00001F05EFE002001F05BFEE52001F064FEB9
:1058E000002001F055FE002001F052FE002001F0E2
:1058F0004FFE002001F04CFE022001F049FE002086
:1059000001F046FE292001F043FE002001F040FE98
:105910003C2001F03DFE002001F03AFE4B2001F05A
:1059200037FE002001F034FE5D2001F031FE002042
:1059300001F02EFE742001F02BFE002001F028FE65
:10594000842001F025FE002001F022FE932001F0CA
:105950001FFE002001F01CFEA22001F019FE002015
:1059600001F016FEB32001F013FE002001F010FE3E
:10597000BE2001F00DFE002001F00AFEC42001F05F
:1059800007FE002001F004FECD2001F001FE002002
:1059900001F0FEFDD32001F0FBFD002001F0F8FD39
:1059A000DC2001F0F5FD002001F0F2FDF32001F014
:1059B000EFFD002001F0ECFDE62001F0F5FD1120E7
:1059C00001F0E6FD002001F0E3FD342001F0E0FDF0
:1059D000002001F0DDFD562001F0DAFD002001F08D
:1059E000D7FD762001F0D4FD002001F0D1FD772015
:1059F00001F0CEFD002001F0CBFD662001F0C8FDD6
:105A0000002001F0C5FD882001F0C2FD002001F05A
:105A1000BFFD992001F0BCFD002001F0B9FDBB20C5
:105A200001F0B6FD002001F0B3FD992001F0B0FDBA
:105A3000002001F0ADFD662001F0AAFD002001F07C
:105A4000A7FD552001F0A4FD002001F0A1FD552087
:105A500001F09EFD002001F09BFD452001F098FD26
:105A6000002001F095FD432001F092FD002001F09F
:105A70008FFD442001F08CFD002001F089FDE7201E
:105A800001F092FD322001F083FD002001F080FD45
:105A9000552001F07DFD002001F07AFD762001F017
:105AA00077FD002001F074FD662001F071FD0020FB
:105AB00001F06EFD672001F06BFD002001F068FD34
:105AC000672001F065FD002001F062FD872001F0F4
:105AD0005FFD002001F05CFD992001F059FD0020E0
